{
  "_format": "hh-sol-artifact-1",
  "contractName": "VouchVault",
  "sourceName": "contracts/VouchVault.sol",
  "abi": [
    {
      "anonymous": false,
      "inputs": [
        {
          "indexed": true,
          "internalType": "address",
          "name": "user",
          "type": "address"
        },
        {
          "indexed": false,
          "internalType": "uint256",
          "name": "amount",
          "type": "uint256"
        }
      ],
      "name": "Deposited",
      "type": "event"
    },
    {
      "anonymous": false,
      "inputs": [
        {
          "indexed": true,
          "internalType": "uint256",
          "name": "loanId",
          "type": "uint256"
        },
        {
          "indexed": true,
          "internalType": "address",
          "name": "borrower",
          "type": "address"
        },
        {
          "indexed": false,
          "internalType": "uint256",
          "name": "collateralAmount",
          "type": "uint256"
        }
      ],
      "name": "LoanCreated",
      "type": "event"
    },
    {
      "anonymous": false,
      "inputs": [
        {
          "indexed": true,
          "internalType": "address",
          "name": "user",
          "type": "address"
        },
        {
          "indexed": false,
          "internalType": "uint256",
          "name": "amount",
          "type": "uint256"
        }
      ],
      "name": "Withdrawn",
      "type": "event"
    },
    {
      "inputs": [
        {
          "internalType": "address",
          "name": "user",
          "type": "address"
        }
      ],
      "name": "balanceOf",
      "outputs": [
        {
          "internalType": "uint256",
          "name": "",
          "type": "uint256"
        }
      ],
      "stateMutability": "view",
      "type": "function"
    },
    {
      "inputs": [],
      "name": "createLoan",
      "outputs": [],
      "stateMutability": "payable",
      "type": "function"
    },
    {
      "inputs": [],
      "name": "deposit",
      "outputs": [],
      "stateMutability": "payable",
      "type": "function"
    },
    {
      "inputs": [
        {
          "internalType": "address",
          "name": "",
          "type": "address"
        }
      ],
      "name": "deposits",
      "outputs": [
        {
          "internalType": "uint256",
          "name": "",
          "type": "uint256"
        }
      ],
      "stateMutability": "view",
      "type": "function"
    },
    {
      "inputs": [
        {
          "internalType": "uint256",
          "name": "loanId",
          "type": "uint256"
        }
      ],
      "name": "getLoan",
      "outputs": [
        {
          "internalType": "address",
          "name": "",
          "type": "address"
        },
        {
          "internalType": "uint256",
          "name": "",
          "type": "uint256"
        },
        {
          "internalType": "uint256",
          "name": "",
          "type": "uint256"
        },
        {
          "internalType": "bool",
          "name": "",
          "type": "bool"
        }
      ],
      "stateMutability": "view",
      "type": "function"
    },
    {
      "inputs": [
        {
          "internalType": "uint256",
          "name": "",
          "type": "uint256"
        }
      ],
      "name": "loans",
      "outputs": [
        {
          "internalType": "address",
          "name": "borrower",
          "type": "address"
        },
        {
          "internalType": "uint256",
          "name": "collateralAmount",
          "type": "uint256"
        },
        {
          "internalType": "uint256",
          "name": "createdAt",
          "type": "uint256"
        },
        {
          "internalType": "bool",
          "name": "active",
          "type": "bool"
        }
      ],
      "stateMutability": "view",
      "type": "function"
    },
    {
      "inputs": [],
      "name": "nextLoanId",
      "outputs": [
        {
          "internalType": "uint256",
          "name": "",
          "type": "uint256"
        }
      ],
      "stateMutability": "view",
      "type": "function"
    },
    {
      "inputs": [
        {
          "internalType": "uint256",
          "name": "amount",
          "type": "uint256"
        }
      ],
      "name": "withdraw",
      "outputs": [],
      "stateMutability": "nonpayable",
      "type": "function"
    }
  ],
  "bytecode": "0x608060405234801561001057600080fd5b50610b92806100206000396000f3fe60806040526004361061007b5760003560e01c806387c514591161004e57806387c5145914610130578063d0e30db01461015b578063e1ec3c6814610165578063fc7e286d146101a55761007b565b80632e1a7d4d14610080578063504006ca146100a957806365ec1a45146100e957806370a08231146100f3575b600080fd5b34801561008c57600080fd5b506100a760048036038101906100a291906107d7565b6101e2565b005b3480156100b557600080fd5b506100d060048036038101906100cb91906107d7565b610350565b6040516100e0949392919061086f565b60405180910390f35b6100f1610421565b005b3480156100ff57600080fd5b5061011a600480360381019061011591906108e0565b6105f1565b604051610127919061090d565b60405180910390f35b34801561013c57600080fd5b50610145610639565b604051610152919061090d565b60405180910390f35b61016361063f565b005b34801561017157600080fd5b5061018c600480360381019061018791906107d7565b610727565b60405161019c949392919061086f565b60405180910390f35b3480156101b157600080fd5b506101cc60048036038101906101c791906108e0565b610784565b6040516101d9919061090d565b60405180910390f35b806000803373ffffffffffffffffffffffffffffffffffffffff1673ffffffffffffffffffffffffffffffffffffffff168152602001908152602001600020541015610263576040517f08c379a000000000000000000000000000000000000000000000000000000000815260040161025a90610985565b60405180910390fd5b806000803373ffffffffffffffffffffffffffffffffffffffff1673ffffffffffffffffffffffffffffffffffffffff16815260200190815260200160002060008282546102b191906109d4565b925050819055503373ffffffffffffffffffffffffffffffffffffffff166108fc829081150290604051600060405180830381858888f193505050501580156102fe573d6000803e3d6000fd5b503373ffffffffffffffffffffffffffffffffffffffff167f7084f5476618d8e60b11ef0d7d3f06914655adb8793e28ff7f018d4c76d505d582604051610345919061090d565b60405180910390a250565b6000806000806000600160008781526020019081526020016000206040518060800160405290816000820160009054906101000a900473ffffffffffffffffffffffffffffffffffffffff1673ffffffffffffffffffffffffffffffffffffffff1673ffffffffffffffffffffffffffffffffffffffff16815260200160018201548152602001600282015481526020016003820160009054906101000a900460ff161515151581525050905080600001518160200151826040015183606001519450945094509450509193509193565b60003411610464576040517f08c379a000000000000000000000000000000000000000000000000000000000815260040161045b90610a54565b60405180910390fd5b346000803373ffffffffffffffffffffffffffffffffffffffff1673ffffffffffffffffffffffffffffffffffffffff16815260200190815260200160002060008282546104b29190610a74565b9250508190555060405180608001604052803373ffffffffffffffffffffffffffffffffffffffff1681526020013481526020014281526020016001151581525060016000600254815260200190815260200160002060008201518160000160006101000a81548173ffffffffffffffffffffffffffffffffffffffff021916908373ffffffffffffffffffffffffffffffffffffffff160217905550602082015181600101556040820151816002015560608201518160030160006101000a81548160ff0219169083151502179055509050503373ffffffffffffffffffffffffffffffffffffffff166002547f8910ba13a55695f056e224bbbc6b65d866b12a8c2fbdf387fb853a1cca298cd7346040516105cf919061090d565b60405180910390a3600260008154809291906105ea90610aa8565b9190505550565b60008060008373ffffffffffffffffffffffffffffffffffffffff1673ffffffffffffffffffffffffffffffffffffffff168152602001908152602001600020549050919050565b60025481565b60003411610682576040517f08c379a000000000000000000000000000000000000000000000000000000000815260040161067990610b3c565b60405180910390fd5b346000803373ffffffffffffffffffffffffffffffffffffffff1673ffffffffffffffffffffffffffffffffffffffff16815260200190815260200160002060008282546106d09190610a74565b925050819055503373ffffffffffffffffffffffffffffffffffffffff167f2da466a7b24304f47e87fa2e1e5a81b9831ce54fec19055ce277ca2f39ba42c43460405161071d919061090d565b60405180910390a2565b60016020528060005260406000206000915090508060000160009054906101000a900473ffffffffffffffffffffffffffffffffffffffff16908060010154908060020154908060030160009054906101000a900460ff16905084565b60006020528060005260406000206000915090505481565b600080fd5b6000819050919050565b6107b4816107a1565b81146107bf57600080fd5b50565b6000813590506107d1816107ab565b92915050565b6000602082840312156107ed576107ec61079c565b5b60006107fb848285016107c2565b91505092915050565b600073ffffffffffffffffffffffffffffffffffffffff82169050919050565b600061082f82610804565b9050919050565b61083f81610824565b82525050565b61084e816107a1565b82525050565b60008115159050919050565b61086981610854565b82525050565b60006080820190506108846000830187610836565b6108916020830186610845565b61089e6040830185610845565b6108ab6060830184610860565b95945050505050565b6108bd81610824565b81146108c857600080fd5b50565b6000813590506108da816108b4565b92915050565b6000602082840312156108f6576108f561079c565b5b6000610904848285016108cb565b91505092915050565b60006020820190506109226000830184610845565b92915050565b600082825260208201905092915050565b7f496e73756666696369656e742062616c616e6365000000000000000000000000600082015250565b600061096f601483610928565b915061097a82610939565b602082019050919050565b6000602082019050818103600083015261099e81610962565b9050919050565b7f4e487b7100000000000000000000000000000000000000000000000000000000600052601160045260246000fd5b60006109df826107a1565b91506109ea836107a1565b9250828203905081811115610a0257610a016109a5565b5b92915050565b7f436f6c6c61746572616c206d757374206265203e203000000000000000000000600082015250565b6000610a3e601683610928565b9150610a4982610a08565b602082019050919050565b60006020820190508181036000830152610a6d81610a31565b9050919050565b6000610a7f826107a1565b9150610a8a836107a1565b9250828201905080821115610aa257610aa16109a5565b5b92915050565b6000610ab3826107a1565b91507fffffffffffffffffffffffffffffffffffffffffffffffffffffffffffffffff8203610ae557610ae46109a5565b5b600182019050919050565b7f4d757374206465706f736974203e203000000000000000000000000000000000600082015250565b6000610b26601083610928565b9150610b3182610af0565b602082019050919050565b60006020820190508181036000830152610b5581610b19565b905091905056fea26469706673582212208adc3ef8610f48dc9fc13de09e3f6381c055502c7180979c4d0d2a38ee8121b764736f6c63430008180033",
  "linkReferences": {},
  "deployedLinkReferences": {}
}